00COTAHIST.2026BOVESPA 20260306                                                                                                                                                                                                                      
012026030602WDCN3       010WDC NETWORKSON      NM   R$  000000000025800000000002590000000000250000000000025300000000002590000000000252000000000025800030000000000000007900000000000002003900000000000000009999123100000010000000000000BRWDCNACNOR2100
012026030602WEGE3       010WEG         ON      NM   R$  000000000466000000000047350000000004618000000000467800000000046620000000004650000000000466218584000000000005517900000000025814250000000000000000009999123100000010000000000000BRWEGEACNOR0234
012026030602YDUQ3       010YDUQS PART  ON      NM   R$  000000000120100000000012330000000001180000000000119300000000011870000000001182000000000118809763000000000003144000000000003752325900000000000000009999123100000010000000000000BRYDUQACNOR3108
012026030602SAPR11      010SANEPAR     UNT     N2   R$  000000000409000000000041080000000004018000000000405500000000040630000000004038000000000406906506000000000001062400000000004308451100000000000000009999123100000010000000000000BRSAPRCDAM13121
012026030602SAPR3       010SANEPAR     ON      N2   R$  000000000091500000000009620000000000844000000000091300000000009090000000000909000000000093401050000000000000378700000000000346059000000000000000009999123100000010000000000000BRSAPRACNOR9162
012026030602SAPR4       010SANEPAR     PN      N2   R$  000000000079900000000008000000000000780000000000078600000000007830000000000782000000000078302884000000000001015600000000000798657800000000000000009999123100000010000000000000BRSAPRACNPR6162
012026030602SBFG3       010GRUPO SBF   ON      NM   R$  000000000116200000000011680000000001123000000000113500000000011350000000001131000000000114005370000000000001925100000000002186090900000000000000009999123100000010000000000000BRSBFGACNOR1104
012026030602VITT3       010VITTIA      ON      NM   R$  000000000040300000000004120000000000403000000000040700000000004100000000000405000000000041200777000000000000135400000000000055138100000000000000009999123100000010000000000000BRVITTACNOR4113
012026030602VIVA3       010VIVARA S.A. ON      NM   R$  000000000302400000000030440000000002949000000000297700000000029990000000002970000000000301412539000000000002787800000000008301594400000000000000009999123100000010000000000000BRVIVAACNOR0109
012026030602VIVR3       010VIVER       ON      NM   R$  000000000004200000000000440000000000041000000000004200000000000420000000000042000000000004300378000000000000223100000000000009452300000000000000009999123100000010000000000000BRVIVRACNOR4126
012026030602VIVT3       010TELEF BRASILON           R$  000000000412000000000041910000000004110000000000415700000000041470000000004129000000000414711414000000000003042400000000012648647100000000000000009999123100000010000000000000BRVIVTACNOR0200
012026030602BGIP3       010BANESE      ON           R$  000000000620000000000062240000000006200000000000621400000000062240000000006162000000000641000004000000000000000400000000000002485700000000000000009999123100000010000000000000BRBGIPACNOR1215
012026030602BGIP4       010BANESE      PN           R$  000000000393000000000039300000000003879000000000389100000000038790000000003871000000000398500006000000000000000600000000000002335100000000000000009999123100000010000000000000BRBGIPACNPR8215
012026030602SNSY5       010SANSUY      PNA          R$  000000000025100000000002520000000000231000000000023600000000002520000000000235000000000025200013000000000000003300000000000000780700000000000000009999123100000010000000000000BRSNSYACNPA5111
012026030602SOJA3       010BOA SAFRA   ON      NM   R$  000000000079100000000008170000000000789000000000079900000000008070000000000807000000000080802875000000000001290100000000001030913300000000000000009999123100000010000000000000BRSOJAACNOR9109
012026030602BSLI3       010BRB BANCO   ON           R$  000000000047600000000004770000000000450000000000046500000000004770000000000480000000000049000084000000000000021000000000000009778300000000000000009999123100000010000000000000BRBSLIACNOR5198
012026030602BSLI4       010BRB BANCO   PN           R$  000000000044100000000004480000000000430000000000043500000000004400000000000431000000000044000097000000000000024200000000000010536100000000000000009999123100000010000000000000BRBSLIACNPR2198
012026030602SUZB3       010SUZANO S.A. ON      NM   R$  000000000557400000000056080000000005451000000000550200000000054920000000005481000000000549922353000000000005010600000000027572412100000000000000009999123100000010000000000000BRSUZBACNOR0135
012026030602VALE3       010VALE        ON      NM   R$  000000000809000000000081200000000007840000000000794000000000078860000000007841000000000786154245000000000029504600000000234274521900000000000000009999123100000010000000000000BRVALEACNOR0219
012026030602VBBR3       010VIBRA       ON      NM   R$  000000000297000000000030750000000002941000000000303100000000030560000000003031000000000305725565000000000008985700000000027240725300000000000000009999123100000010000000000000BRVBBRACNOR1114
012026030602POMO3       010MARCOPOLO   ON      N2   R$  000000000061000000000006190000000000594000000000060300000000006000000000000598000000000059901221000000000000619000000000000373719700000000000000009999123100000010000000000000BRPOMOACNOR0105
012026030602POMO4       010MARCOPOLO   PN      N2   R$  000000000065600000000006570000000000629000000000063800000000006340000000000631000000000063516826000000000011707200000000007476357300000000000000009999123100000010000000000000BRPOMOACNPR7105
012026030602POSI3       010POSITIVO TECON      NM   R$  000000000040500000000004110000000000401000000000040500000000004060000000000405000000000040701780000000000001313500000000000532440600000000000000009999123100000010000000000000BRPOSIACNOR9118
012026030602SANB11      010SANTANDER BRUNT          R$  000000000321500000000032320000000003107000000000315800000000031520000000003151000000000315214719000000000003223400000000010182064700000000000000009999123100000010000000000000BRSANBCDAM13172
012026030602SANB3       010SANTANDER BRON           R$  000000000159000000000016050000000001535000000000156400000000015620000000001562000000000160900391000000000000079000000000000123561400000000000000009999123100000010000000000000BRSANBACNOR8179
012026030602SANB4       010SANTANDER BRPN           R$  000000000163400000000016340000000001587000000000160300000000015930000000001593000000000162000495000000000000113400000000000181831000000000000000009999123100000010000000000000BRSANBACNPR5179
012026030602PRIO3       010PETRORIO    ON  ATZ NM   R$  000000000581200000000060180000000005801000000000593900000000059390000000005970000000000598951778000000000020121300000000119501777500000000000000009999123100000010000000000000BRPRIOACNOR1112
012026030602RAIL3       010RUMO S.A.   ON      NM   R$  000000000154000000000015720000000001525000000000155600000000015480000000001547000000000154827599000000000011888700000000018501801500000000000000009999123100000010000000000000BRRAILACNOR9106
012026030602RAIZ4       010RAIZEN      PN      N2   R$  000000000005900000000000600000000000055000000000005700000000000550000000000055000000000005618079000000000041914400000000002391493000000000000000009999123100000010000000000000BRRAIZACNPR6112
012026030602VAMO3       010VAMOS       ON      NM   R$  000000000039900000000004050000000000390000000000039700000000003970000000000396000000000039724565000000000034159900000000013567479300000000000000009999123100000010000000000000BRVAMOACNOR7109
012026030602UNIP3       010UNIPAR      ON           R$  000000000658000000000066000000000006458000000000651400000000064890000000006410000000000649000028000000000000003600000000000023450600000000000000009999123100000010000000000000BRUNIPACNOR7210
012026030602UNIP6       010UNIPAR      PNB          R$  000000000695200000000070140000000006860000000000694000000000069030000000006891000000000693201819000000000000320800000000002226500400000000000000009999123100000010000000000000BRUNIPACNPB8210
012026030602HBOR3       010HELBOR      ON      NM   R$  000000000028700000000002920000000000281000000000028600000000002890000000000286000000000029002021000000000000932300000000000267332000000000000000009999123100000010000000000000BRHBORACNOR3120
012026030602HBRE3       010HBR REALTY  ON      NM   R$  000000000030100000000003030000000000278000000000028700000000002880000000000287000000000029102352000000000001418800000000000408004500000000000000009999123100000010000000000000BRHBREACNOR4101
012026030602HBSA3       010HIDROVIAS   ON      NM   R$  000000000040600000000004140000000000395000000000040100000000003990000000000396000000000040503764000000000001613200000000000648393100000000000000009999123100000010000000000000BRHBSAACNOR0102
012026030602BRBI11      010BR PARTNERS UNT     N2   R$  000000000183900000000018700000000001800000000000182000000000018700000000001872000000000187303475000000000000490700000000000893108700000000000000009999123100000010000000000000BRBRBICDAM10116
012026030602BRKM3       010BRASKEM     ON      N1   R$  000000000115000000000012000000000001038000000000111600000000010450000000001055000000000118000677000000000000175100000000000195579000000000000000009999123100000010000000000000BRBRKMACNOR1119
012026030602DASA3       010DASA        ON      NM   R$  000000000038800000000003920000000000372000000000038100000000003800000000000378000000000038101699000000000000765000000000000291567500000000000000009999123100000010000000000000BRDASAACNOR1123
012026030602NATU3       010NATURA      ON      NM   R$  000000000086000000000008880000000000856000000000087400000000008730000000000870000000000088010724000000000005064500000000004427529800000000000000009999123100000010000000000000BRNATUACNOR6137
012026030602RANI3       010IRANI       ON  ED  NM   R$  000000000099100000000010050000000000970000000000097900000000009790000000000971000000000098102735000000000000790300000000000774344800000000000000009999123100000010000000000000BRRANIACNOR5080
012026030602RAPT3       010RANDON PART ON      N1   R$  000000000062700000000006270000000000610000000000061600000000006100000000000610000000000061500029000000000000007800000000000004805600000000000000009999123100000010000000000000BRRAPTACNOR7166
012026030602JHSF3       010JHSF PART   ON  ED  NM   R$  000000000090200000000009070000000000880000000000089100000000008970000000000891000000000089207553000000000003194800000000002848013200000000000000009999123100000010000000000000BRJHSFACNOR2157
012026030602NEOE3       010NEOENERGIA  ON      NM   R$  000000000327800000000032870000000003272000000000327800000000032870000000003278000000000329002433000000000000823700000000002700273900000000000000009999123100000010000000000000BRNEOEACNOR3127
012026030602NGRD3       010NEOGRID     ON      NM   R$  000000000266300000000027030000000002601000000000263400000000026020000000002602000000000270000058000000000000029200000000000076920700000000000000009999123100000010000000000000BRNGRDACNOR3106
012026030602NUTR3       010NUTRIPLANT  ON      MA   R$  000000000024500000000002500000000000236000000000024400000000002500000000000239000000000027500023000000000000004200000000000001026500000000000000009999123100000010000000000000BRNUTRACNOR0104
012026030602FIQE3       010UNIFIQUE    ON      NM   R$  000000000053000000000005350000000000520000000000052700000000005250000000000524000000000052900991000000000000384200000000000202783400000000000000009999123100000010000000000000BRFIQEACNOR5112
012026030602FLRY3       010FLEURY      ON      NM   R$  000000000160800000000016460000000001550000000000158900000000016020000000001598000000000160212995000000000004251400000000006757637500000000000000009999123100000010000000000000BRFLRYACNOR5143
012026030602HYPE3       010HYPERA      ON      NM   R$  000000000217100000000022260000000002156000000000219000000000022000000000002202000000000220913250000000000003561200000000007802080100000000000000009999123100000010000000000000BRHYPEACNOR0150
012026030602ITUB3       010ITAUUNIBANCOON  EJ  N1   R$  000000000410100000000041150000000004042000000000407800000000040810000000004061000000000408805576000000000001300800000000005305095300000000000000009999123100000010000000000000BRITUBACNOR4366
012026030602MDIA3       010M.DIASBRANCOON      NM   R$  000000000226500000000023010000000002252000000000227700000000022790000000002289000000000230303839000000000000783000000000001783416900000000000000009999123100000010000000000000BRMDIAACNOR7151
012026030602MTRE3       010MITRE REALTYON      NM   R$  000000000038500000000003850000000000370000000000037500000000003740000000000374000000000037501306000000000000915700000000000343552900000000000000009999123100000010000000000000BRMTREACNOR6131
012026030602MULT3       010MULTIPLAN   ON      N2   R$  000000000321600000000032570000000003146000000000317700000000031930000000003175000000000319322232000000000006573000000000020885524900000000000000009999123100000010000000000000BRMULTACNOR5145
012026030602MWET4       010WETZEL S/A  PN           R$  000000000129900000000014290000000001299000000000133500000000014000000000001031000000000140000006000000000000000900000000000001202300000000000000009999123100000010000000000000BRMWETACNPR3118
012026030602MYPK3       010IOCHP-MAXIONON      NM   R$  000000000097000000000009790000000000943000000000095500000000009460000000000947000000000095004532000000000001542600000000001474373100000000000000009999123100000010000000000000BRMYPKACNOR7158
012026030602LUXM4       010TREVISA     PN           R$  000000000040700000000004070000000000407000000000040700000000004070000000000407000000000042800001000000000000000100000000000000040700000000000000009999123100000010000000000000BRLUXMACNPR4053
012026030602LWSA3       010LWSA        ON      NM   R$  000000000036600000000003760000000000359000000000036500000000003670000000000366000000000036806731000000000007092200000000002592444800000000000000009999123100000010000000000000BRLWSAACNOR8106
012026030602ITUB4       010ITAUUNIBANCOPN  EJ  N1   R$  000000000434600000000043590000000004265000000000429900000000042930000000004284000000000430241091000000000026063600000000112055059100000000000000009999123100000010000000000000BRITUBACNPR1366
012026030602LJQQ3       010QUERO-QUERO ON      NM   R$  000000000020700000000002190000000000191000000000020500000000001920000000000193000000000019405247000000000009046100000000001854801000000000000000009999123100000010000000000000BRLJQQACNOR5105
012026030602LOGG3       010LOG COM PROPON      NM   R$  000000000271500000000027510000000002682000000000270600000000027190000000002701000000000274703349000000000000679200000000001838420300000000000000009999123100000010000000000000BRLOGGACNOR7112
012026030602LOGN3       010LOG-IN      ON      NM   R$  000000000318900000000032050000000003185000000000319500000000032040000000003006000000000320500033000000000000003900000000000012463700000000000000009999123100000010000000000000BRLOGNACNOR3105
012026030602LPSB3       010LOPES BRASILON      NM   R$  000000000019500000000002000000000000190000000000019400000000001900000000000190000000000019100315000000000000119600000000000023205900000000000000009999123100000010000000000000BRLPSBACNOR0116
012026030602LREN3       010LOJAS RENNERON      NM   R$  000000000149000000000015250000000001456000000000147900000000014770000000001471000000000148235457000000000023018100000000034047820200000000000000009999123100000010000000000000BRLRENACNOR1228
012026030602OBTC3       010ORANJEBTC   ON           R$  000000000072200000000007300000000000700000000000071600000000007060000000000706000000000072701227000000000000230600000000000165124400000000000000009999123100000010000000000000BROBTCACNOR0100
012026030602ODPV3       010ODONTOPREV  ON      NM   R$  000000000137300000000013820000000001343000000000136500000000013700000000001359000000000137307751000000000004582800000000006259171600000000000000009999123100000010000000000000BRODPVACNOR4213
012026030602OFSA3       010OUROFINO S/AON      NM   R$  000000000246700000000025500000000002445000000000249500000000025390000000002501000000000254000066000000000000030500000000000076109400000000000000009999123100000010000000000000BROFSAACNOR7122
012026030602ONCO3       010ONCOCLINICASON      NM   R$  000000000021500000000002200000000000205000000000021000000000002150000000000213000000000021405272000000000003698100000000000780133100000000000000009999123100000010000000000000BRONCOACNOR6102
012026030602OPCT3       010OCEANPACT   ON      NM   R$  000000000095500000000009690000000000936000000000094700000000009480000000000940000000000095302795000000000000688200000000000651799600000000000000009999123100000010000000000000BROPCTACNOR0100
012026030602USIM3       010USIMINAS    ON      N1   R$  000000000067200000000006740000000000644000000000065300000000006560000000000650000000000065900894000000000000575600000000000375939800000000000000009999123100000010000000000000BRUSIMACNOR3167
012026030602USIM5       010USIMINAS    PNA     N1   R$  000000000066400000000006730000000000643000000000065100000000006510000000000647000000000065210868000000000010282700000000006699108300000000000000009999123100000010000000000000BRUSIMACNPA6172
012026030602TTEN3       0103TENTOS     ON      NM   R$  000000000166200000000016650000000001554000000000159600000000015640000000001563000000000156523829000000000007648600000000012208041400000000000000009999123100000010000000000000BRTTENACNOR0105
012026030602TUPY3       010TUPY        ON      NM   R$  000000000127100000000013000000000001246000000000126900000000012620000000001259000000000127304805000000000001240300000000001574054200000000000000009999123100000010000000000000BRTUPYACNOR1185
012026030602UCAS3       010UNICASA     ON      NM   R$  000000000015100000000001510000000000147000000000014900000000001490000000000149000000000015100065000000000000023000000000000003428700000000000000009999123100000010000000000000BRUCASACNOR1114
012026030602UGPA3       010ULTRAPAR    ON      NM   R$  000000000258000000000026540000000002572000000000261900000000026430000000002643000000000265226953000000000009792900000000025653983100000000000000009999123100000010000000000000BRUGPAACNOR8159
012026030602WEST3       010WESTWING    ON      NM   R$  000000000059700000000006000000000000593000000000059500000000005930000000000591000000000064000011000000000000006300000000000003749400000000000000009999123100000010000000000000BRWESTACNOR3101
012026030602WHRL3       010WHIRLPOOL   ON           R$  000000000043600000000004390000000000433000000000043400000000004330000000000433000000000043600007000000000000001300000000000000564800000000000000009999123100000010000000000000BRWHRLACNOR5135
012026030602WHRL4       010WHIRLPOOL   PN           R$  000000000046800000000004690000000000461000000000046400000000004610000000000461000000000046300028000000000000005400000000000002507700000000000000009999123100000010000000000000BRWHRLACNPR2135
012026030602WIZC3       010WIZ CO      ON      NM   R$  000000000093600000000009420000000000922000000000093200000000009350000000000928000000000093801667000000000000399100000000000371975400000000000000009999123100000010000000000000BRWIZCACNOR5104
012026030602WLMM3       010WLM IND COM ON           R$  000000000239800000000023980000000002398000000000239800000000023980000000001903000000000248800002000000000000000300000000000000719400000000000000009999123100000010000000000000BRWLMMACNOR6125
012026030602WLMM4       010WLM IND COM PN           R$  000000000227600000000023470000000002276000000000232900000000023470000000002264000000000234800004000000000000000400000000000000931700000000000000009999123100000010000000000000BRWLMMACNPR3125
012026030602PRNR3       010PRINER      ON      NM   R$  000000000207500000000020770000000002005000000000202200000000020250000000002015000000000202002585000000000000452700000000000915441000000000000000009999123100000010000000000000BRPRNRACNOR4111
012026030602PSSA3       010PORTO SEGUROON      NM   R$  000000000495000000000049620000000004875000000000492100000000049230000000004891000000000492507125000000000001520800000000007484078600000000000000009999123100000010000000000000BRPSSAACNOR7161
012026030602SCAR3       010SAO CARLOS  ON      NM   R$  000000000143900000000014550000000001430000000000143600000000014310000000001431000000000145200137000000000000040300000000000057881800000000000000009999123100000010000000000000BRSCARACNOR7133
012026030602SEER3       010SER EDUCA   ON      NM   R$  000000000108800000000011340000000001063000000000108300000000010750000000001073000000000108507770000000000001651000000000001788682700000000000000009999123100000010000000000000BRSEERACNOR5120
012026030602SEQL3       010SEQUOIA LOG ON      NM   R$  000000000003200000000000390000000000031000000000003300000000000310000000000030000000000003101839000000000003368700000000000113228300000000000000009999123100000010000000000000BRSEQLACNOR2108
012026030602SHOW3       010TIME FOR FUNON      NM   R$  000000000047900000000004990000000000465000000000048600000000004650000000000460000000000047400418000000000000091600000000000044604000000000000000009999123100000010000000000000BRSHOWACNOR7106
012026030602SHUL4       010SCHULZ      PN           R$  000000000052800000000005280000000000518000000000052300000000005250000000000522000000000052800412000000000000287900000000000150655700000000000000009999123100000010000000000000BRSHULACNPR4163
012026030602SIMH3       010SIMPAR      ON      NM   R$  000000000110400000000011680000000001085000000000113000000000011320000000001134000000000113816022000000000008260200000000009339433000000000000000009999123100000010000000000000BRSIMHACNOR0110
012026030602SLCE3       010SLC AGRICOLAON      NM   R$  000000000162100000000016580000000001616000000000163900000000016390000000001635000000000164210624000000000002551900000000004183296300000000000000009999123100000010000000000000BRSLCEACNOR2128
012026030602TKNO4       010TEKNO       PN           R$  000000002200000000000220050000000022000000000002200100000000220030000000022003000000002222200011000000000000003600000000000079204100000000000000009999123100000010000000000000BRTKNOACNPR5080
012026030602TOKY3       010GRUPO TOKY  ON      NM   R$  000000000004900000000000500000000000047000000000004800000000000490000000000048000000000005000075000000000000172800000000000008465400000000000000009999123100000010000000000000BRTOKYACNOR5101
012026030602TOTS3       010TOTVS       ON      NM   R$  000000000366200000000037570000000003584000000000364800000000036070000000003592000000000360820697000000000004595000000000016764367600000000000000009999123100000010000000000000BRTOTSACNOR8150
012026030602TPIS3       010TRIUNFO PARTON      NM   R$  000000000071900000000007240000000000670000000000070600000000007230000000000701000000000072200297000000000000055800000000000039407100000000000000009999123100000010000000000000BRTPISACNOR8120
012026030602TRAD3       010TC          ON      NM   R$  000000000022600000000002400000000000212000000000022700000000002400000000000236000000000024000090000000000000055900000000000012690300000000000000009999123100000010000000000000BRTRADACNOR3102
012026030602TRIS3       010TRISUL      ON      NM   R$  000000000071100000000007110000000000673000000000068400000000006780000000000675000000000068101750000000000000706100000000000483073900000000000000009999123100000010000000000000BRTRISACNOR4122
012026030602ISAE3       010ISA ENERGIA ON  EJ  N1   R$  000000000326000000000032610000000003241000000000325200000000032500000000003240000000000325000016000000000000001800000000000005854100000000000000009999123100000010000000000000BRISAEACNOR2109
012026030602ISAE4       010ISA ENERGIA PN  EJ  N1   R$  000000000277200000000027890000000002728000000000276600000000027890000000002761000000000277006166000000000001732700000000004793032200000000000000009999123100000010000000000000BRISAEACNPR9109
012026030602ENEV3       010ENEVA       ON      NM   R$  000000000200000000000020280000000001976000000000200300000000020090000000002005000000000200924609000000000014899900000000029849633500000000000000009999123100000010000000000000BRENEVACNOR8107
012026030602GRND3       010GRENDENE    ON      NM   R$  000000000047900000000004790000000000451000000000045700000000004520000000000452000000000045613268000000000012425500000000005681398100000000000000009999123100000010000000000000BRGRNDACNOR3182
012026030602CXSE3       010CAIXA SEGURION      NM   R$  000000000175100000000017720000000001727000000000175300000000017610000000001757000000000176813078000000000003753800000000006582149100000000000000009999123100000010000000000000BRCXSEACNOR7114
012026030602CYRE3       010CYRELA REALTON      NM   R$  000000000280000000000028460000000002743000000000278600000000028010000000002802000000000281021459000000000005419400000000015101865600000000000000009999123100000010000000000000BRCYREACNOR7143
012026030602ENGI11      010ENERGISA    UNT     N2   R$  000000000524000000000053060000000005190000000000526700000000052900000000005245000000000529010198000000000001977100000000010414648100000000000000009999123100000010000000000000BRENGICDAM16140
012026030602ENGI3       010ENERGISA    ON      N2   R$  000000000127000000000012890000000001250000000000125900000000012500000000001250000000000128000033000000000000005600000000000007052700000000000000009999123100000010000000000000BRENGIACNOR0150
012026030602ENGI4       010ENERGISA    PN      N2   R$  000000000100400000000010100000000000971000000000099500000000009920000000000992000000000102300042000000000000009100000000000009062500000000000000009999123100000010000000000000BRENGIACNPR7146
012026030602ENJU3       010ENJOEI      ON      NM   R$  000000000010400000000001050000000000101000000000010200000000001030000000000102000000000010300973000000000000370000000000000038028400000000000000009999123100000010000000000000BRENJUACNOR9100
012026030602EPAR3       010EMBPAR S/A  ON           R$  000000000033500000000003590000000000335000000000034300000000003590000000000346000000000035800015000000000000003100000000000001065000000000000000009999123100000010000000000000BREPARACNOR9107
012026030602EQPA3       010EQTL PARA   ON           R$  000000000064000000000006490000000000640000000000064200000000006400000000000641000000000064900005000000000000000500000000000000321200000000000000009999123100000010000000000000BREQPAACNOR1112
012026030602EQTL3       010EQUATORIAL  ON      NM   R$  000000000403800000000040680000000003983000000000403000000000040470000000004047000000000406717931000000000005801300000000023380624500000000000000009999123100000010000000000000BREQTLACNOR0135
012026030602SMFT3       010SMART FIT   ON      NM   R$  000000000189400000000019290000000001861000000000188300000000018800000000001864000000000188019118000000000006097000000000011485204900000000000000009999123100000010000000000000BRSMFTACNOR1118
012026030602SMTO3       010SAO MARTINHOON      NM   R$  000000000184500000000019430000000001811000000000187400000000018880000000001886000000000189315234000000000004280900000000008025844400000000000000009999123100000010000000000000BRSMTOACNOR3129
012026030602ECOR3       010ECORODOVIAS ON      NM   R$  000000000097000000000009700000000000941000000000095000000000009560000000000951000000000096008477000000000005679200000000005399184400000000000000009999123100000010000000000000BRECORACNOR8122
012026030602FRAS3       010FRAS-LE     ON      N1   R$  000000000239900000000024220000000002355000000000236800000000023700000000002352000000000238401492000000000000233000000000000551952200000000000000009999123100000010000000000000BRFRASACNOR0163
012026030602GEPA3       010GER PARANAP ON           R$  000000000338000000000033800000000003380000000000338000000000033800000000003060000000000351000001000000000000000100000000000000338000000000000000009999123100000010000000000000BRGEPAACNOR2158
012026030602GEPA4       010GER PARANAP PN           R$  000000000353300000000035990000000003433000000000350000000000035990000000003461000000000359900007000000000000000700000000000002450000000000000000009999123100000010000000000000BRGEPAACNPR9165
012026030602GFSA3       010GAFISA      ON      NM   R$  000000000020000000000002060000000000187000000000019500000000001910000000000189000000000019101496000000000001260900000000000246055400000000000000009999123100000010000000000000BRGFSAACNOR3127
012026030602GGBR3       010GERDAU      ON      N1   R$  000000000168400000000016840000000001643000000000165900000000016430000000001642000000000167700179000000000000034700000000000057578000000000000000009999123100000010000000000000BRGGBRACNOR1198
012026030602GGBR4       010GERDAU      PN      N1   R$  000000000192000000000019290000000001877000000000189300000000018900000000001879000000000188123125000000000012677700000000024004361700000000000000009999123100000010000000000000BRGGBRACNPR8198
012026030602RAPT4       010RANDON PART PN      N1   R$  000000000062100000000006310000000000598000000000060600000000006000000000000598000000000060106424000000000005783100000000003507991200000000000000009999123100000010000000000000BRRAPTACNPR4166
012026030602IBOV11      010IBOVESPA    IBO/         R$  000001797830000000179783000000017978300000001797830000000179783000000000000000000000000000000014000000000000001820000000000327205060000000000000009999123100001000000000000000BRIBOVINDM18016
012026030602LUPA3       010LUPATECH    ON      NM   R$  000000000011800000000001180000000000116000000000011700000000001170000000000117000000000011800036000000000000033700000000000003943300000000000000009999123100000010000000000000BRLUPAACNOR8112
012026030602MOVI3       010MOVIDA      ON      NM   R$  000000000123000000000012970000000001212000000000123400000000012280000000001225000000000123014389000000000007422400000000009165033800000000000000009999123100000010000000000000BRMOVIACNOR0126
012026030602MRVE3       010MRV         ON      NM   R$  000000000092200000000009360000000000899000000000092400000000009300000000000930000000000093215935000000000009308500000000008601065700000000000000009999123100000010000000000000BRMRVEACNOR2128
012026030602PFRM3       010PROFARMA    ON      NM   R$  000000000088100000000008890000000000867000000000087600000000008670000000000867000000000087200744000000000000105100000000000092151200000000000000009999123100000010000000000000BRPFRMACNOR1122
012026030602PGMN3       010PAGUE MENOS ON      NM   R$  000000000064800000000006480000000000614000000000062300000000006200000000000615000000000062610890000000000004522700000000002820738300000000000000009999123100000010000000000000BRPGMNACNOR8106
012026030602RCSL3       010RECRUSUL    ON  EB       R$  000000000007100000000000780000000000069000000000007100000000000700000000000070000000000007100316000000000000339200000000000024307600000000000000009999123100000010000000000000BRRCSLACNOR4135
012026030602RCSL4       010RECRUSUL    PN  EB       R$  000000000011800000000001230000000000106000000000011300000000001070000000000107000000000010803626000000000003741100000000000425559500000000000000009999123100000010000000000000BRRCSLACNPR1135
012026030602RDOR3       010REDE D OR   ON      NM   R$  000000000380000000000038800000000003787000000000383100000000038410000000003839000000000385032670000000000009537300000000036545762900000000000000009999123100000010000000000000BRRDORACNOR8119
012026030602GGPS3       010GPS         ON      NM   R$  000000000178700000000018240000000001730000000000176500000000017810000000001747000000000180614563000000000006143600000000010847113400000000000000009999123100000010000000000000BRGGPSACNOR9106
012026030602GMAT3       010GRUPO MATEUSON      NM   R$  000000000051800000000005350000000000515000000000052400000000005250000000000526000000000053009348000000000006398100000000003353911200000000000000009999123100000010000000000000BRGMATACNOR7109
012026030602FESA4       010FERBASA     PN      N1   R$  000000000078400000000007900000000000771000000000077600000000007780000000000774000000000077901639000000000000503700000000000391142700000000000000009999123100000010000000000000BRFESAACNPR5090
012026030602FHER3       010FER HERINGERON      NM   R$  000000000040900000000004170000000000395000000000040200000000003950000000000394000000000040400086000000000000035900000000000014439400000000000000009999123100000010000000000000BRFHERACNOR5103
012026030602DESK3       010DESKTOP     ON      NM   R$  000000000140100000000015030000000001383000000000143300000000014400000000001429000000000145406904000000000001429100000000002048670500000000000000009999123100000010000000000000BRDESKACNOR2106
012026030602DEXP3       010DEXXOS PAR  ON      N1   R$  000000000075000000000007500000000000728000000000073400000000007280000000000728000000000073400730000000000000159800000000000117416300000000000000009999123100000010000000000000BRDEXPACNOR1109
012026030602DEXP4       010DEXXOS PAR  PN      N1   R$  000000000073200000000007340000000000720000000000072600000000007290000000000726000000000072900027000000000000015000000000000010902600000000000000009999123100000010000000000000BRDEXPACNPR8109
012026030602DIRR3       010DIRECIONAL  ON      NM   R$  000000000147100000000015030000000001453000000000148700000000015020000000001499000000000150314497000000000005338200000000007943198900000000000000009999123100000010000000000000BRDIRRACNOR0123
012026030602ATED3       010ATOM EDUC   ON           R$  000000000020000000000002000000000000200000000000020000000000002000000000000200000000000020400006000000000000002400000000000000480000000000000000009999123100000010000000000000BRATEDACNOR1100
012026030602BRAP3       010BRADESPAR   ON      N1   R$  000000000198500000000019890000000001939000000000195600000000019460000000001943000000000196000644000000000000109300000000000213857400000000000000009999123100000010000000000000BRBRAPACNOR5153
012026030602BRAP4       010BRADESPAR   PN      N1   R$  000000000230000000000023020000000002219000000000224900000000022420000000002232000000000223908807000000000003417100000000007688139900000000000000009999123100000010000000000000BRBRAPACNPR2153
012026030602CMIG3       010CEMIG       ON      N1   R$  000000000149900000000015190000000001487000000000150400000000015110000000001509000000000151900352000000000000049600000000000074632000000000000000009999123100000010000000000000BRCMIGACNOR6251
012026030602CMIG4       010CEMIG       PN      N1   R$  000000000115300000000011640000000001141000000000115400000000011560000000001155000000000115814647000000000008878000000000010251522500000000000000009999123100000010000000000000BRCMIGACNPR3252
012026030602AERI3       010AERIS       ON      NM   R$  000000000027300000000002730000000000265000000000026800000000002710000000000266000000000027100089000000000000024400000000000006558000000000000000009999123100000010000000000000BRAERIACNOR4102
012026030602BIED3       010BIOMA EDUC  ON      MA   R$  000000000075000000000007510000000000750000000000075000000000007510000000000703000000000075000002000000000000000200000000000000150100000000000000009999123100000010000000000000BRBIEDACNOR2101
012026030602BLAU3       010BLAU        ON      NM   R$  000000000106900000000010820000000001043000000000105400000000010430000000001041000000000108501332000000000000254900000000000268749800000000000000009999123100000010000000000000BRBLAUACNOR8120
012026030602BMEB3       010MERCANTIL   ON      N1   R$  000000000724500000000072450000000007076000000000721300000000072400000000007151000000000724000015000000000000001500000000000010819900000000000000009999123100000010000000000000BRBMEBACNOR8210
012026030602BMEB4       010MERCANTIL   PN      N1   R$  000000000791900000000079200000000007590000000000772800000000077960000000007680000000000779600212000000000000033300000000000257346300000000000000009999123100000010000000000000BRBMEBACNPR5215
012026030602BMGB4       010BANCO BMG   PN      N1   R$  000000000048300000000004840000000000472000000000047700000000004760000000000476000000000047702622000000000002060700000000000984052600000000000000009999123100000010000000000000BRBMGBACNPR0118
012026030602BMIN4       010MERC INVEST PN           R$  000000000253900000000026280000000002500000000000255200000000025550000000002530000000000255000049000000000000009400000000000023994500000000000000009999123100000010000000000000BRBMINACNPR1177
012026030602CASH3       010MELIUZ      ON      NM   R$  000000000035000000000003500000000000331000000000033500000000003330000000000333000000000033704189000000000002136600000000000715982200000000000000009999123100000010000000000000BRCASHACNOR8107
012026030602CBAV3       010CBA         ON      NM   R$  000000000100600000000010140000000000998000000000100700000000010100000000001008000000000101004318000000000004381400000000004412694400000000000000009999123100000010000000000000BRCBAVACNOR5104
012026030602CBEE3       010AMPLA ENERG ON           R$  000000000099800000000010640000000000998000000000103000000000010640000000001000000000000106400007000000000000001000000000000001030800000000000000009999123100000010000000000000BRCBEEACNOR3163
012026030602CEAB3       010CEA MODAS   ON      NM   R$  000000000118100000000012070000000001162000000000118000000000011800000000001182000000000118314418000000000006637200000000007836871800000000000000009999123100000010000000000000BRCEABACNOR1105
012026030602CEBR3       010CEB         ON           R$  000000000319500000000032000000000003150000000000319000000000031500000000003147000000000000000015000000000000003000000000000009571300000000000000009999123100000010000000000000BRCEBRACNOR5129
012026030602CEBR5       010CEB         PNA          R$  000000000299900000000030020000000002959000000000299200000000030010000000002937000000000300300008000000000000001500000000000004488200000000000000009999123100000010000000000000BRCEBRACNPA8128
012026030602CEBR6       010CEB         PNB          R$  000000000319800000000031980000000003100000000000313400000000031120000000003118000000000316000013000000000000003000000000000009403400000000000000009999123100000010000000000000BRCEBRACNPB6128
012026030602CEEB3       010COELBA      ON           R$  000000000470200000000047020000000004700000000000470100000000047000000000004691000000000479500003000000000000000400000000000001880400000000000000009999123100000010000000000000BRCEEBACNOR3207
012026030602CGAS5       010COMGAS      PNA          R$  000000001329900000000132990000000013199000000001322600000000132100000000013210000000001334800004000000000000000500000000000006613200000000000000009999123100000010000000000000BRCGASACNPA3165
012026030602CGRA3       010GRAZZIOTIN  ON           R$  000000000274000000000027860000000002731000000000274700000000027310000000002730000000000278400004000000000000000400000000000001098900000000000000009999123100000010000000000000BRCGRAACNOR2088
012026030602CGRA4       010GRAZZIOTIN  PN           R$  000000000267600000000027590000000002676000000000271900000000027100000000002704000000000272400034000000000000005900000000000016044100000000000000009999123100000010000000000000BRCGRAACNPR9088
012026030602CLSC4       010CELESC      PN      N2   R$  000000001469900000000146990000000014373000000001449700000000145340000000014400000000001453500035000000000000003500000000000050740500000000000000009999123100000010000000000000BRCLSCACNPR3138
012026030602CSNA3       010SID NACIONALON           R$  000000000074700000000007550000000000718000000000072800000000007190000000000718000000000072017307000000000014698000000000010705037700000000000000009999123100000010000000000000BRCSNAACNOR6264
012026030602EKTR4       010ELEKTRO     PN           R$  000000000401000000000040100000000003999000000000400400000000039990000000003623000000000399900002000000000000000200000000000000800900000000000000009999123100000010000000000000BREKTRACNPR7174
012026030602EMAE4       010EMAE        PN           R$  000000000470000000000047450000000004700000000000471500000000047450000000004590000000000474500003000000000000000300000000000001414500000000000000009999123100000010000000000000BREMAEACNPR1128
012026030602EMBJ3       010EMBRAER     ON      NM   R$  000000000875300000000087600000000008014000000000850500000000080140000000008000000000000803536087000000000020428200000000173745769800000000000000009999123100000010000000000000BREMBJACNOR1102
012026030602AALR3       010ALLIAR      ON      NM   R$  000000000045600000000004800000000000456000000000047200000000004800000000000475000000000047900122000000000000061600000000000029084200000000000000009999123100000010000000000000BRAALRACNOR6104
012026030602ABCB4       010ABC BRASIL  PN      N2   R$  000000000262200000000026220000000002562000000000257800000000025850000000002572000000000258402010000000000000387300000000000998808200000000000000009999123100000010000000000000BRABCBACNPR4150
012026030602ABEV3       010AMBEV S/A   ON           R$  000000000153000000000015340000000001496000000000151900000000015230000000001522000000000152918399000000000017914800000000027220248200000000000000009999123100000010000000000000BRABEVACNOR1134
012026030602AZEV3       010AZEVEDO     ON           R$  000000000002900000000000290000000000027000000000002700000000000280000000000027000000000002900313000000000001038200000000000029046000000000000000009999123100000010000000000000BRAZEVACNOR0123
012026030602AZEV4       010AZEVEDO     PN           R$  000000000002000000000000210000000000019000000000001900000000000190000000000019000000000002000454000000000007346400000000000144891900000000000000009999123100000010000000000000BRAZEVACNPR7123
012026030602AZTE3       010AZT ENERGIA ON           R$  000000000002800000000000310000000000026000000000002800000000000270000000000026000000000002700600000000000006976700000000000199088800000000000000009999123100000010000000000000BRAZTEACNOR4101
012026030602AZUL53      010AZUL        ON  P   N2   R$  000000002150000000000222000000000021210000000002160000000000216000000000021610000000002170000374000000007857000000000000000170463889000000000000009999123110000000000000000000BRAZULA01OR8102
012026030602AZZA3       010AZZAS 2154  ON      NM   R$  000000000250500000000025530000000002445000000000249100000000024540000000002436000000000245015921000000000003455600000000008609319800000000000000009999123100000010000000000000BRAZZAACNOR9104
012026030602BBDC3       010BRADESCO    ON  EJ  N1   R$  000000000170400000000017100000000001667000000000168000000000016830000000001679000000000168512685000000000008986700000000015106010000000000000000009999123100000010000000000000BRBBDCACNOR1798
012026030602BBDC4       010BRADESCO    PN  EJ  N1   R$  000000000197100000000019830000000001934000000000195100000000019550000000001951000000000195643342000000000037187000000000072580512300000000000000009999123100000010000000000000BRBBDCACNPR8798
012026030602BEES3       010BANESTES    ON  EJ       R$  000000000087900000000008790000000000856000000000086600000000008740000000000871000000000087200066000000000000014300000000000012393600000000000000009999123100000010000000000000BRBEESACNOR9416
012026030602BEES4       010BANESTES    PN  EJ       R$  000000000088400000000009040000000000883000000000089200000000008860000000000885000000000089900023000000000000004000000000000003568800000000000000009999123100000010000000000000BRBEESACNPR6341
012026030602BIOM3       010BIOMM       ON      MA   R$  000000000070500000000007750000000000694000000000074100000000007400000000000740000000000075000260000000000000069100000000000051252600000000000000009999123100000010000000000000BRBIOMACNOR2113
012026030602B3SA3       010B3          ON      NM   R$  000000000174500000000017500000000001688000000000171000000000017240000000001725000000000173044959000000000038256800000000065423878200000000000000009999123100000010000000000000BRB3SAACNOR6140
012026030602PETR3       010PETROBRAS   ON      N2   R$  000000000451600000000047000000000004473000000000461300000000045780000000004575000000000457630097000000000025315100000000116779957600000000000000009999123100000010000000000000BRPETRACNOR9212
012026030602PETR4       010PETROBRAS   PN  ATZ N2   R$  000000000419000000000043120000000004142000000000423400000000042110000000004190000000000420009463000000000087228000000000369345177100000000000000009999123100000010000000000000BRPETRACNPR6224
012026030602JSLG3       010JSL         ON      NM   R$  000000000076000000000007630000000000722000000000074700000000007500000000000739000000000075404667000000000001941100000000001451414100000000000000009999123100000010000000000000BRJSLGACNOR2123
012026030602KEPL3       010KEPLER WEBERON      NM   R$  000000000082300000000008330000000000811000000000081700000000008160000000000815000000000082005470000000000002425100000000001981687200000000000000009999123100000010000000000000BRKEPLACNOR1069
012026030602KLBN11      010KLABIN S/A  UNT     N2   R$  000000000196300000000019820000000001926000000000195200000000019530000000001945000000000195412126000000000004931500000000009627221100000000000000009999123100000010000000000000BRKLBNCDAM18151
012026030602KLBN3       010KLABIN S/A  ON      N2   R$  000000000039400000000003970000000000388000000000039200000000003920000000000390000000000039200739000000000000542400000000000212831800000000000000009999123100000010000000000000BRKLBNACNOR2179
012026030602KLBN4       010KLABIN S/A  PN      N2   R$  000000000039500000000003960000000000385000000000039000000000003880000000000388000000000038904401000000000003635400000000001418213200000000000000009999123100000010000000000000BRKLBNACNPR9179
012026030602TASA3       010TAURUS ARMASON      N2   R$  000000000059000000000005900000000000576000000000058100000000005760000000000575000000000058100083000000000000083400000000000048500600000000000000009999123100000010000000000000BRTASAACNOR7106
012026030602TASA4       010TAURUS ARMASPN      N2   R$  000000000059500000000005950000000000571000000000057800000000005750000000000575000000000058000955000000000000381500000000000220557400000000000000009999123100000010000000000000BRTASAACNPR4106
012026030602TCSA3       010TECNISA     ON      NM   R$  000000000014100000000001440000000000132000000000013600000000001330000000000130000000000013100265000000000000178400000000000024398100000000000000009999123100000010000000000000BRTCSAACNOR3112
012026030602TECN3       010TECHNOS     ON      NM   R$  000000000081600000000008210000000000800000000000080700000000008070000000000800000000000080800191000000000000043400000000000035054300000000000000009999123100000010000000000000BRTECNACNOR6111
012026030602TELB3       010TELEBRAS    ON           R$  000000000135000000000013510000000001350000000000135000000000013510000000001350000000000136500003000000000000000300000000000000405200000000000000009999123100000010000000000000BRTELBACNOR2142
012026030602TELB4       010TELEBRAS    PN           R$  000000000080000000000008000000000000795000000000079900000000007990000000000784000000000080800006000000000000000700000000000000559300000000000000009999123100000010000000000000BRTELBACNPR9142
012026030602TEND3       010TENDA       ON      NM   R$  000000000278900000000030600000000002779000000000295100000000030060000000002977000000000301120792000000000005754500000000016983853700000000000000009999123100000010000000000000BRTENDACNOR4114
012026030602TFCO4       010TRACK FIELD PN      N2   R$  000000000168500000000016850000000001607000000000162200000000016190000000001610000000000168004071000000000000664500000000001077838200000000000000009999123100000010000000000000BRTFCOACNPR8121
012026030602TGMA3       010TEGMA       ON      NM   R$  000000000385400000000039070000000003750000000000379500000000037730000000003743000000000384001842000000000000339300000000001287646700000000000000009999123100000010000000000000BRTGMAACNOR7150
012026030602TIMS3       010TIM         ON      NM   R$  000000000266000000000027080000000002642000000000267900000000026660000000002663000000000267012582000000000003327900000000008917350200000000000000009999123100000010000000000000BRTIMSACNOR5129
012026030602SBSP3       010SABESP      ON      NM   R$  000000001461400000000146750000000014326000000001448600000000144760000000014547000000001457516400000000000002793600000000040470593700000000000000009999123100000010000000000000BRSBSPACNOR5165
012026030602SYNE3       010SYN PROP TECON      NM   R$  000000000047500000000004750000000000465000000000046700000000004650000000000465000000000046900894000000000000220200000000000102998000000000000000009999123100000010000000000000BRSYNEACNOR2107
012026030602TAEE11      010TAESA       UNT     N2   R$  000000000423600000000042810000000004198000000000424500000000042670000000004246000000000426811618000000000002434500000000010334940600000000000000009999123100000010000000000000BRTAEECDAM10153
012026030602TAEE3       010TAESA       ON      N2   R$  000000000140800000000014200000000001386000000000140200000000014200000000001401000000000142000295000000000000046800000000000065629100000000000000009999123100000010000000000000BRTAEEACNOR9153
012026030602TAEE4       010TAESA       PN      N2   R$  000000000142100000000014330000000001407000000000141800000000014330000000001425000000000143300628000000000000143400000000000203396100000000000000009999123100000010000000000000BRTAEEACNPR6153
012026030602VLID3       010VALID       ON      NM   R$  000000000208500000000020920000000002045000000000206300000000020660000000002052000000000207301414000000000000209800000000000432929100000000000000009999123100000010000000000000BRVLIDACNOR5148
012026030602VSTE3       010VESTE       ON      NM   R$  000000000038000000000003850000000000373000000000037900000000003810000000000375000000000038100047000000000000038500000000000014614900000000000000009999123100000010000000000000BRVSTEACNOR5104
012026030602VTRU3       010VITRUEDUCA  ON      NM   R$  000000000136200000000013840000000001336000000000135300000000013480000000001331000000000137401857000000000000272700000000000369049900000000000000009999123100000010000000000000BRVTRUACNOR3101
012026030602VULC3       010VULCABRAS   ON      NM   R$  000000000180500000000018050000000001719000000000175000000000017350000000001723000000000173006872000000000002469900000000004324599600000000000000009999123100000010000000000000BRVULCACNOR2181
012026030602CAMB3       010CAMBUCI     ON           R$  000000000094200000000009550000000000941000000000094900000000009410000000000940000000000094100039000000000000021400000000000020309700000000000000009999123100000010000000000000BRCAMBACNOR4136
012026030602CAML3       010CAMIL       ON  ED  NM   R$  000000000065400000000006560000000000635000000000064200000000006380000000000637000000000064502822000000000000967200000000000621770200000000000000009999123100000010000000000000BRCAMLACNOR3135
012026030602CSED3       010CRUZEIRO EDUON      NM   R$  000000000062200000000006300000000000611000000000061700000000006160000000000611000000000062101651000000000000452200000000000279177000000000000000009999123100000010000000000000BRCSEDACNOR9107
012026030602CSMG3       010COPASA      ON      NM   R$  000000000527000000000053060000000005169000000000521100000000052170000000005208000000000522512443000000000002040200000000010633344400000000000000009999123100000010000000000000BRCSMGACNOR5183
012026030602EGIE3       010ENGIE BRASILON      NM   R$  000000000317900000000032130000000003145000000000319300000000032130000000003194000000000321506663000000000001343300000000004290357000000000000000009999123100000010000000000000BREGIEACNOR9132
012026030602VVEO3       010VIVEO       ON      NM   R$  000000000013100000000001350000000000118000000000012400000000001180000000000118000000000011902169000000000003970200000000000493475500000000000000009999123100000010000000000000BRVVEOACNOR0104
012026030602ARML3       010ARMAC       ON      NM   R$  000000000055100000000005540000000000490000000000051500000000004900000000000483000000000048803167000000000001111000000000000572445500000000000000009999123100000010000000000000BRARMLACNOR1117
012026030602ARND3       010ARANDU      ON      NM   R$  000000000007000000000000700000000000070000000000007000000000000700000000000070000000000008300006000000000000002000000000000000140000000000000000009999123100000010000000000000BRARNDACNOR6100
012026030602ASAI3       010ASSAI       ON      NM   R$  000000000081100000000008240000000000796000000000080900000000008190000000000813000000000082014169000000000009275300000000007511806800000000000000009999123100000010000000000000BRASAIACNOR0109
012026030602ORVR3       010ORIZON      ON      NM   R$  000000000701300000000070210000000006864000000000691500000000069180000000006848000000000694902853000000000000449300000000003107126600000000000000009999123100000010000000000000BRORVRACNOR0101
012026030602AFLT3       010AFLUENTE T  ON           R$  000000000073100000000007320000000000731000000000073100000000007320000000000732000000000076300003000000000000000300000000000000219400000000000000009999123100000010000000000000BRAFLTACNOR1126
012026030602AGRO3       010BRASILAGRO  ON      NM   R$  000000000215500000000021750000000002107000000000212500000000021210000000002107000000000212100767000000000000100400000000000213444900000000000000009999123100000010000000000000BRAGROACNOR7116
012026030602ALLD3       010ALLIED      ON      NM   R$  000000000071500000000007230000000000702000000000071000000000007110000000000711000000000071203752000000000000644000000000000457583700000000000000009999123100000010000000000000BRALLDACNOR3110
012026030602PCAR3       010P.ACUCAR-CBDON      NM   R$  000000000029500000000002970000000000287000000000029100000000002880000000000288000000000028905717000000000006916200000000002014313300000000000000009999123100000010000000000000BRPCARACNOR3170
012026030602ALPA3       010ALPARGATAS  ON      N1   R$  000000000119400000000012100000000001111000000000114500000000011570000000001130000000000115400059000000000000010600000000000012140600000000000000009999123100000010000000000000BRALPAACNOR0234
012026030602ALPA4       010ALPARGATAS  PN      N1   R$  000000000133700000000013380000000001226000000000124800000000012260000000001212000000000122610889000000000004621900000000005771756800000000000000009999123100000010000000000000BRALPAACNPR7235
012026030602ALPK3       010ESTAPAR     ON      NM   R$  000000000047100000000004770000000000434000000000044900000000004500000000000440000000000045900807000000000000505100000000000226835900000000000000009999123100000010000000000000BRALPKACNOR9101
012026030602ALUP11      010ALUPAR      UNT     N2   R$  000000000339600000000034550000000003323000000000338100000000033820000000003366000000000338205149000000000000912700000000003086188300000000000000009999123100000010000000000000BRALUPCDAM15126
012026030602ALUP3       010ALUPAR      ON      N2   R$  000000000122000000000012750000000001213000000000123100000000012300000000001230000000000129900052000000000000011500000000000014158800000000000000009999123100000010000000000000BRALUPACNOR8126
012026030602ALUP4       010ALUPAR      PN      N2   R$  000000000107400000000010950000000001052000000000107300000000010710000000001070000000000107700095000000000000016000000000000017182900000000000000009999123100000010000000000000BRALUPACNPR5126
012026030602AMAR3       010LOJAS MARISAON      NM   R$  000000000008900000000000900000000000087000000000008800000000000890000000000088000000000008900245000000000000104500000000000009249600000000000000009999123100000010000000000000BRAMARACNOR4115
012026030602AMOB3       010AUTOMOB     ON      NM   R$  000000000127400000000012840000000001228000000000126200000000012840000000001253000000000129000449000000000000062200000000000078509400000000000000009999123100000010000000000000BRAMOBACNOR9101
012026030602ANIM3       010ANIMA       ON      NM   R$  000000000044900000000004630000000000428000000000043500000000004340000000000431000000000043312958000000000010186600000000004435936500000000000000009999123100000010000000000000BRANIMACNOR6110
012026030602CMIN3       010CSNMINERACAOON      N2   R$  000000000051400000000005190000000000500000000000050900000000005140000000000510000000000051512082000000000014384500000000007335458000000000000000009999123100000010000000000000BRCMINACNOR2116
012026030602CSUD3       010CSU DIGITAL ON      NM   R$  000000000191700000000019170000000001859000000000188200000000018730000000001871000000000187300313000000000000040500000000000076228700000000000000009999123100000010000000000000BRCSUDACNOR5117
012026030602CTKA4       010KARSTEN     PN           R$  000000000416100000000041610000000003855000000000402600000000041010000000003950000000000410000020000000000000002400000000000009663800000000000000009999123100000010000000000000BRCTKAACNPR7043
012026030602CURY3       010CURY S/A    ON      NM   R$  000000000351800000000035950000000003441000000000354400000000035680000000003551000000000359816869000000000004099900000000014530924600000000000000009999123100000010000000000000BRCURYACNOR3116
012026030602CVCB3       010CVC BRASIL  ON      NM   R$  000000000020700000000002110000000000202000000000020500000000002040000000000203000000000020406313000000000006967100000000001434050300000000000000009999123100000010000000000000BRCVCBACNOR1118
012026030602ALOS3       010ALLOS       ON      NM   R$  000000000310000000000031270000000003028000000000305600000000030680000000003055000000000306914839000000000004390900000000013420266100000000000000009999123100000010000000000000BRALOSACNOR5119
012026030602BMKS3       010BIC MONARK  ON           R$  000000003820000000000389570000000037610000000003817000000000377000000000037621000000003800000024000000000000000148000000000005649240000000000000009999123100000010000000000000BRBMKSACNOR9169
012026030602BMOB3       010BEMOBI TECH ON      NM   R$  000000000238000000000024250000000002304000000000233000000000023420000000002322000000000237502848000000000000401500000000000935667400000000000000009999123100000010000000000000BRBMOBACNOR7107
012026030602BNBR3       010NORD BRASIL ON           R$  000000001187600000000119750000000011876000000001190900000000119750000000011877000000001222300003000000000000000300000000000003572700000000000000009999123100000010000000000000BRBNBRACNOR8211
012026030602BRKM5       010BRASKEM     PNA     N1   R$  000000000129900000000013780000000001220000000000129800000000012500000000001250000000000125839679000000000020051100000000026029570300000000000000009999123100000010000000000000BRBRKMACNPA4123
012026030602BRKM6       010BRASKEM     PNB     N1   R$  000000000098900000000009890000000000989000000000098900000000009890000000000802000000000097000001000000000000000100000000000000098900000000000000009999123100000010000000000000BRBRKMACNPB2114
012026030602CPLE3       010COPEL       ON      NM   R$  000000000144900000000014540000000001424000000000144300000000014450000000001441000000000144926370000000000010467800000000015106774800000000000000009999123100000010000000000000BRCPLEACNOR8153
012026030602CRPG5       010CRISTAL     PNA          R$  000000000179000000000017900000000001790000000000179000000000017900000000001751000000000179000001000000000000000100000000000000179000000000000000009999123100000010000000000000BRCRPGACNPA3119
012026030602CSAN3       010COSAN       ON      NM   R$  000000000056600000000005850000000000556000000000056500000000005590000000000559000000000056026694000000000039661000000000022434454400000000000000009999123100000010000000000000BRCSANACNOR6129
012026030602BALM4       010BAUMER      PN           R$  000000000180400000000019560000000001804000000000189700000000019550000000001860000000000195500009000000000000001100000000000002087300000000000000009999123100000010000000000000BRBALMACNPR2060
012026030602BAZA3       010AMAZONIA    ON           R$  000000000885000000000088500000000008551000000000866300000000086520000000008630000000000868700032000000000000003700000000000032053200000000000000009999123100000010000000000000BRBAZAACNOR0180
012026030602BBAS3       010BRASIL      ON  EJ  NM   R$  000000000249000000000025160000000002441000000000247100000000024750000000002466000000000247535106000000000020986400000000051858870800000000000000009999123100000010000000000000BRBBASACNOR3336
012026030602BRAV3       010BRAVA       ON  ATZ NM   R$  000000000192100000000019880000000001921000000000196400000000019730000000001973000000000197534548000000000014463600000000028420616300000000000000009999123100000010000000000000BRBRAVACNOR3104
012026030602COCE5       010COELCE      PNA          R$  000000000314500000000032090000000003125000000000316500000000031900000000003130000000000319600013000000000000001900000000000006015300000000000000009999123100000010000000000000BRCOCEACNPA3150
012026030602COGN3       010COGNA ON    ON      NM   R$  000000000031800000000003230000000000307000000000031200000000003140000000000310000000000031120000000000000031219100000000009744677200000000000000009999123100000010000000000000BRCOGNACNOR2110
012026030602BEEF3       010MINERVA     ON      NM   R$  000000000045100000000004630000000000444000000000045000000000004500000000000448000000000044927638000000000019459700000000008774665100000000000000009999123100000010000000000000BRBEEFACNOR6120
012026030602DMVF3       010D1000VFARMA ON      NM   R$  000000000067000000000006760000000000653000000000066900000000006620000000000662000000000067000252000000000000035200000000000023550500000000000000009999123100000010000000000000BRDMVFACNOR9100
012026030602DOTZ3       010DOTZ SA     ON      NM   R$  000000000029900000000002990000000000284000000000028900000000002840000000000286000000000029500036000000000000007500000000000002169500000000000000009999123100000010000000000000BRDOTZACNOR7101
012026030602BBSE3       010BBSEGURIDADEON      NM   R$  000000000338300000000034200000000003362000000000339500000000034200000000003415000000000341616577000000000005853800000000019874245000000000000000009999123100000010000000000000BRBBSEACNOR5128
012026030602CPFE3       010CPFL ENERGIAON      NM   R$  000000000476500000000047880000000004683000000000473700000000047400000000004735000000000474509477000000000001928400000000009136426200000000000000009999123100000010000000000000BRCPFEACNOR0138
012026030602GOAU3       010GERDAU MET  ON      N1   R$  000000000086000000000008600000000000835000000000084200000000008350000000000834000000000084000307000000000000062500000000000052646900000000000000009999123100000010000000000000BRGOAUACNOR1274
012026030602GOAU4       010GERDAU MET  PN      N1   R$  000000000086300000000008650000000000847000000000085200000000008540000000000851000000000085514424000000000012725600000000010845307300000000000000009999123100000010000000000000BRGOAUACNPR8275
012026030602IFCM3       010INFRACOMM   ON      NM   R$  000000000010500000000001110000000000102000000000010700000000001050000000000104000000000010500848000000000001378500000000000148043700000000000000009999123100000010000000000000BRIFCMACNOR8109
012026030602IGTI11      010IGUATEMI S.AUNT     N1   R$  000000000276000000000027920000000002735000000000275600000000027410000000002730000000000276809751000000000002050800000000005652840000000000000000009999123100000010000000000000BRIGTICDAM16109
012026030602IGTI3       010IGUATEMI S.AON      N1   R$  000000000032600000000003260000000000321000000000032100000000003210000000000321000000000032400023000000000000005700000000000001833700000000000000009999123100000010000000000000BRIGTIACNOR8109
012026030602IGTI4       010IGUATEMI S.APN      N1   R$  000000000122700000000012270000000001227000000000122700000000012270000000001101000000000139900001000000000000000100000000000000122700000000000000009999123100000010000000000000BRIGTIACNPR5109
012026030602HAGA3       010HAGA S/A    ON           R$  000000000024400000000002450000000000225000000000023600000000002430000000000233000000000024300046000000000000009100000000000002152800000000000000009999123100000010000000000000BRHAGAACNOR7103
012026030602HAGA4       010HAGA S/A    PN           R$  000000000014200000000001470000000000138000000000014000000000001460000000000139000000000014400024000000000000019500000000000002734700000000000000009999123100000010000000000000BRHAGAACNPR4103
012026030602HAPV3       010HAPVIDA     ON      NM   R$  000000000095200000000009900000000000945000000000096400000000009580000000000956000000000095814457000000000007678000000000007402467700000000000000009999123100000010000000000000BRHAPVACNOR4119
012026030602JALL3       010JALLESMACHADON      NM   R$  000000000031700000000003400000000000317000000000033200000000003260000000000323000000000032401985000000000002576200000000000857268100000000000000009999123100000010000000000000BRJALLACNOR0106
012026030602PINE3       010PINE        ON      N2   R$  000000000110200000000011780000000001102000000000112900000000011130000000001097000000000114800030000000000000015500000000000017508200000000000000009999123100000010000000000000BRPINEACNOR1160
012026030602PINE4       010PINE        PN      N2   R$  000000000112000000000011570000000001103000000000112600000000011300000000001126000000000113905409000000000001615500000000001819584000000000000000009999123100000010000000000000BRPINEACNPR8160
012026030602PLPL3       010PLANOEPLANO ON      NM   R$  000000000137600000000014120000000001349000000000138900000000014070000000001401000000000141207608000000000002574600000000003578494000000000000000009999123100000010000000000000BRPLPLACNOR5106
012026030602PNVL3       010DIMED       ON      NM   R$  000000000151400000000015140000000001473000000000149100000000014960000000001481000000000149602764000000000000674100000000001005602500000000000000009999123100000010000000000000BRPNVLACNOR9213
012026030602RADL3       010RAIADROGASILON      NM   R$  000000000236100000000024000000000002351000000000237900000000023730000000002370000000000238731559000000000011683300000000027802912200000000000000009999123100000010000000000000BRRADLACNOR0165
012026030602MILS3       010MILLS       ON      NM   R$  000000000148000000000014870000000001430000000000144900000000014390000000001435000000000145102605000000000000856700000000001241671200000000000000009999123100000010000000000000BRMILSACNOR2132
012026030602MLAS3       010MULTILASER  ON      NM   R$  000000000012700000000001300000000000124000000000012600000000001240000000000125000000000012600824000000000000574500000000000072652100000000000000009999123100000010000000000000BRMLASACNOR9102
012026030602MNDL3       010MUNDIAL     ON           R$  000000000178000000000017800000000001780000000000178000000000017800000000001710000000000180000001000000000000000400000000000000712000000000000000009999123100000010000000000000BRMNDLACNOR4109
012026030602MNPR3       010MINUPAR     ON           R$  000000000046400000000004640000000000431000000000044700000000004390000000000439000000000045200031000000000000006200000000000002773800000000000000009999123100000010000000000000BRMNPRACNOR5123
012026030602MOTV3       010MOTIVA SA   ON      NM   R$  000000000156400000000015920000000001544000000000155800000000015590000000001550000000000156821873000000000015199900000000023689450100000000000000009999123100000010000000000000BRMOTVACNOR7102
012026030602PTBL3       010PORTOBELLO  ON      NM   R$  000000000031700000000003230000000000315000000000031900000000003180000000000317000000000031800209000000000000233800000000000074638500000000000000009999123100000010000000000000BRPTBLACNOR8132
012026030602PTNT3       010PETTENATI   ON           R$  000000000086900000000008690000000000869000000000086900000000008690000000000855000000000086900001000000000000000100000000000000086900000000000000009999123100000010000000000000BRPTNTACNOR6044
012026030602PTNT4       010PETTENATI   PN           R$  000000000084000000000008460000000000836000000000084000000000008460000000000839000000000084600043000000000000042000000000000035291500000000000000009999123100000010000000000000BRPTNTACNPR3049
012026030602QUAL3       010QUALICORP   ON      NM   R$  000000000020000000000002040000000000195000000000019800000000001970000000000196000000000020006229000000000005556200000000001104453600000000000000009999123100000010000000000000BRQUALACNOR6122
012026030602CYRE4       010CYRELA REALTPN      NM   R$  000000000265000000000026700000000002587000000000262400000000026340000000002600000000000275803760000000000000622100000000001632654200000000000000009999123100000010000000000000BRCYREACNPR4114
012026030602ESPA3       010ESPACOLASER ON      NM   R$  000000000011100000000001180000000000111000000000011500000000001160000000000115000000000011600578000000000000847300000000000097807500000000000000009999123100000010000000000000BRESPAACNOR7105
012026030602ETER3       010ETERNIT     ON      NM   R$  000000000039300000000003970000000000390000000000039100000000003900000000000390000000000039300273000000000000073000000000000028571800000000000000009999123100000010000000000000BRETERACNOR3246
012026030602ITSA3       010ITAUSA      ON  EJ  N1   R$  000000000135200000000013520000000001326000000000133700000000013390000000001330000000000134200405000000000000086900000000000116208300000000000000009999123100000010000000000000BRITSAACNOR0456
012026030602ITSA4       010ITAUSA      PN  EJ  N1   R$  000000000133500000000013410000000001316000000000132800000000013320000000001329000000000133322441000000000019375700000000025733825600000000000000009999123100000010000000000000BRITSAACNPR7456
012026030602EUCA3       010EUCATEX     ON      N1   R$  000000000220000000000022000000000002200000000000220000000000022000000000002060000000000220000002000000000000000200000000000000440000000000000000009999123100000010000000000000BREUCAACNOR1159
012026030602EUCA4       010EUCATEX     PN      N1   R$  000000000212200000000021220000000002058000000000208100000000020760000000002052000000000207600186000000000000025300000000000052670500000000000000009999123100000010000000000000BREUCAACNPR8046
012026030602EVEN3       010EVEN        ON      NM   R$  000000000076200000000007670000000000740000000000074900000000007490000000000744000000000075102640000000000000654300000000000490170500000000000000009999123100000010000000000000BREVENACNOR8121
012026030602EZTC3       010EZTEC       ON      NM   R$  000000000147600000000014920000000001427000000000146200000000014760000000001474000000000148508158000000000002472200000000003615275500000000000000009999123100000010000000000000BREZTCACNOR0132
012026030602LAND3       010TERRASANTAPAON      NM   R$  000000000088100000000009110000000000880000000000089100000000008940000000000880000000000089400260000000000000057200000000000051015700000000000000009999123100000010000000000000BRLANDACNOR9104
012026030602LAVV3       010LAVVI       ON      NM   R$  000000000177100000000017730000000001725000000000174500000000017500000000001749000000000175903068000000000000693700000000001210833600000000000000009999123100000010000000000000BRLAVVACNOR4120
012026030602LEVE3       010METAL LEVE  ON      NM   R$  000000000350100000000035100000000003441000000000347500000000034930000000003478000000000349402202000000000000329000000000001143317400000000000000009999123100000010000000000000BRLEVEACNOR2202
012026030602PDGR3       010PDG REALT   ON      NM   R$  000000000020600000000002080000000000195000000000020000000000001950000000000195000000000020400053000000000000015200000000000003049000000000000000009999123100000010000000000000BRPDGRACNOR8123
012026030602PDTC3       010PADTEC      ON      NM   R$  000000000014600000000001540000000000146000000000015000000000001500000000000148000000000015000038000000000000031700000000000004766700000000000000009999123100000010000000000000BRPDTCACNOR3101
012026030602BHIA3       010CASAS BAHIA ON      NM   R$  000000000027700000000002840000000000277000000000028000000000002840000000000281000000000028402582000000000002870000000000000805602700000000000000009999123100000010000000000000BRBHIAACNOR1104
012026030602BPAC11      010BTGP BANCO  UNT     N2   R$  000000000570900000000057370000000005553000000000561800000000056000000000005600000000000560731310000000000009962300000000055971216000000000000000009999123100000010000000000000BRBPACUNT006128
012026030602BPAC3       010BTGP BANCO  ON      N2   R$  000000000420900000000042090000000004060000000000410400000000040630000000004055000000000413900040000000000000004700000000000019292300000000000000009999123100000010000000000000BRBPACACNOR7139
012026030602BPAC5       010BTGP BANCO  PNA     N2   R$  000000000108600000000011000000000001072000000000108200000000010760000000001072000000000109000056000000000000008900000000000009633400000000000000009999123100000010000000000000BRBPACACNPA0139
012026030602BRSR3       010BANRISUL    ON      N1   R$  000000000191800000000019180000000001894000000000190200000000018940000000001894000000000191000022000000000000002600000000000004947000000000000000009999123100000010000000000000BRBRSRACNOR3197
012026030602BRSR6       010BANRISUL    PNB     N1   R$  000000000179700000000018020000000001751000000000178200000000017880000000001782000000000179104971000000000001422800000000002535433500000000000000009999123100000010000000000000BRBRSRACNPB4200
012026030602BRST3       010BRISANET    ON      NM   R$  000000000029800000000003010000000000294000000000029600000000002950000000000294000000000029500819000000000000447800000000000132882100000000000000009999123100000010000000000000BRBRSTACNOR9102
012026030602MATD3       010MATER DEI   ON      NM   R$  000000000059600000000006020000000000586000000000059000000000005860000000000580000000000058200713000000000000160800000000000094934600000000000000009999123100000010000000000000BRMATDACNOR4106
012026030602MBRF3       010MARFRIG     ON      NM   R$  000000000184500000000018570000000001793000000000181700000000018070000000001809000000000181015902000000000006879200000000012504331300000000000000009999123100000010000000000000BRMBRFACNOR1100
012026030602RIAA3       010RIACHUELO   ON      NM   R$  000000000094000000000009420000000000905000000000091700000000009120000000000906000000000091505942000000000002448400000000002245844500000000000000009999123100000010000000000000BRRIAAACNOR2100
012026030602RNEW3       010RENOVA      ON      N2   R$  000000000013000000000001320000000000118000000000012400000000001270000000000124000000000012700486000000000000274200000000000034093600000000000000009999123100000010000000000000BRRNEWACNOR8113
012026030602RNEW4       010RENOVA      PN      N2   R$  000000000012200000000001290000000000116000000000012300000000001290000000000118000000000012800160000000000000135300000000000016741000000000000000009999123100000010000000000000BRRNEWACNPR5113
012026030602ROMI3       010ROMI        ON      NM   R$  000000000080500000000008090000000000799000000000080200000000008060000000000805000000000080800713000000000000250700000000000201153300000000000000009999123100000010000000000000BRROMIACNOR8201
012026030602RSUL4       010RIOSULENSE  PN           R$  000000000640900000000064090000000006301000000000635500000000063010000000006300000000000639900002000000000000000200000000000001271000000000000000009999123100000010000000000000BRRSULACNPR3116
012026030602RVEE3       010REVEE       ON      NM   R$  000000000014700000000001470000000000147000000000014700000000001470000000000149000000000018500001000000000000000100000000000000014700000000000000009999123100000010000000000000BRRVEEACNOR9102
012026030602EALT3       010ACO ALTONA  ON           R$  000000000145500000000014560000000001455000000000145500000000014560000000001440000000000145600002000000000000002700000000000003931100000000000000009999123100000010000000000000BREALTACNOR4140
012026030602EALT4       010ACO ALTONA  PN           R$  000000000147000000000014700000000001441000000000145600000000014510000000001445000000000145600033000000000000005000000000000007281900000000000000009999123100000010000000000000BREALTACNPR1140
012026030602AUAU3       010PETZCOBASI  ON      NM   R$  000000000031200000000003160000000000306000000000031300000000003120000000000313000000000031603762000000000003944100000000001235641700000000000000009999123100000010000000000000BRAUAUACNOR1100
012026030602AURE3       010AUREN       ON      NM   R$  000000000115000000000011630000000001135000000000115000000000011500000000001146000000000114909768000000000003425700000000003941866400000000000000009999123100000010000000000000BRAUREACNOR9105
012026030602AVLL3       010ALPHAVILLE  ON      NM   R$  000000000007500000000000760000000000073000000000007400000000000730000000000073000000000007400008000000000000002600000000000000192900000000000000009999123100000010000000000000BRAVLLACNOR5103
012026030602AXIA3       010AXIA ENERGIAON  ATZ N1   R$  000000000588200000000059600000000005738000000000585200000000058990000000005884000000000590936941000000000011135500000000065168999100000000000000009999123100000010000000000000BRAXIAACNOR0103
012026030602AXIA6       010AXIA ENERGIAPNB     N1   R$  000000000640000000000065080000000006269000000000638300000000064290000000006418000000000645006146000000000001149200000000007336211700000000000000009999123100000010000000000000BRAXIAACNPB1103
012026030602AXIA7       010AXIA ENERGIAPNC     N1   R$  000000000565000000000057670000000005554000000000568800000000057200000000005720000000000578910915000000000002025800000000011522889800000000000000009999123100000010000000000000BRAXIAACNPC9100
012026030602DXCO3       010DEXCO       ON      NM   R$  000000000048200000000004960000000000465000000000047400000000004690000000000469000000000047009479000000000008043000000000003814065400000000000000009999123100000010000000000000BRDXCOACNOR8108
012026030602MEAL3       010IMC S/A     ON      NM   R$  000000000011100000000001130000000000111000000000011100000000001120000000000111000000000011200063000000000000054700000000000006114000000000000000009999123100000010000000000000BRMEALACNOR9105
012026030602MELK3       010MELNICK     ON      NM   R$  000000000038300000000003830000000000368000000000037200000000003700000000000371000000000037502447000000000000611400000000000227468700000000000000009999123100000010000000000000BRMELKACNOR8116
012026030602MERC4       010MERC FINANC PN           R$  000000000162500000000016250000000001625000000000162500000000016250000000001625000000000000000008000000000000012000000000000019500000000000000000009999123100000010000000000000BRMERCACNPR9182
012026030602MGEL4       010MANGELS INDLPN           R$  000000000059900000000006070000000000599000000000060300000000006070000000000591000000000060600002000000000000000200000000000000120600000000000000009999123100000010000000000000BRMGELACNPR3147
012026030602MGLU3       010MAGAZ LUIZA ON      NM   R$  000000000091500000000009480000000000910000000000093000000000009330000000000930000000000093316600000000000018677300000000017374334100000000000000009999123100000010000000000000BRMGLUACNOR2130
012026030602INEP3       010INEPAR      ON           R$  000000000013000000000001310000000000125000000000012600000000001270000000000126000000000012700033000000000000017000000000000002157100000000000000009999123100000010000000000000BRINEPACNOR1145
012026030602INEP4       010INEPAR      PN           R$  000000000011400000000001150000000000112000000000011300000000001150000000000113000000000011500027000000000000030900000000000003497000000000000000009999123100000010000000000000BRINEPACNPR8145
012026030602INTB3       010INTELBRAS   ON      NM   R$  000000000139300000000013980000000001347000000000136100000000013580000000001353000000000136304460000000000001486100000000002023728700000000000000009999123100000010000000000000BRINTBACNOR9115
012026030602IRBR3       010IRBBRASIL REON      NM   R$  000000000563000000000056300000000005450000000000552300000000055870000000005561000000000558804572000000000001254000000000006925937900000000000000009999123100000010000000000000BRIRBRACNOR4113
012026030602MDNE3       010MOURA DUBEUXON      NM   R$  000000000317500000000032170000000003071000000000311900000000031090000000003089000000000310905229000000000000847300000000002642960400000000000000009999123100000010000000000000BRMDNEACNOR9104
012026030602RECV3       010PETRORECSA  ON      NM   R$  000000000128900000000013050000000001277000000000129400000000012870000000001287000000000129411107000000000006800800000000008805776100000000000000009999123100000010000000000000BRRECVACNOR3110
012026030602REDE3       010REDE ENERGIAON           R$  000000000062800000000006290000000000627000000000062700000000006290000000000629000000000063300017000000000000005900000000000003700200000000000000009999123100000010000000000000BRREDEACNOR7134
012026030602RENT3       010LOCALIZA    ON      NM   R$  000000000464000000000047290000000004522000000000459500000000045830000000004533000000000453732873000000000009698100000000044564717900000000000000009999123100000010000000000000BRRENTACNOR4205
012026030602RENT4       010LOCALIZA    PN      NM   R$  000000000444800000000044940000000004315000000000438200000000043660000000004325000000000438301020000000000000173800000000000761685300000000000000009999123100000010000000000000BRRENTACNPR1100
012026030602GOLL54      010GOL         PN *P        R$  000000000114200000000011520000000001126000000000114700000000011520000000001137000000000115500254000000000098114000000000000112556466000000000000009999123100010000000000000000BRGOLLA01PR5100
012026030607TXRX4       010TEX RENAUX  PN           R$  000000000015800000000001580000000000157000000000015700000000001570000000000157000000000017000002000000000000001000000000000000157200000000000000009999123100000010000000000000BRTXRXACNPR0142
012026030608BDLL4       010BARDELLA    PN           R$  000000000061200000000006120000000000612000000000061200000000006120000000000601000000000067700001000000000000000100000000000000061200000000000000009999123100000010000000000000BRBDLLACNPR8151
012026030608NEXP3       010NEXPE       ON           R$  000000000027700000000002770000000000277000000000027700000000002770000000000275000000000027900001000000000000000100000000000000027700000000000000009999123100000010000000000000BRNEXPACNOR0101
012026030608FICT3       010FICTORALIMENON           R$  000000000005200000000000550000000000050000000000005000000000000500000000000050000000000005100051000000000000046300000000000002349000000000000000009999123100000010000000000000BRFICTACNOR3101
012026030608LIGT3       010LIGHT S/A   ON      NM   R$  000000000048000000000004800000000000452000000000046400000000004680000000000466000000000046906595000000000003592900000000001667399400000000000000009999123100000010000000000000BRLIGTACNOR2125
012026030608OIBR3       010OI          ON      N1   R$  000000000001600000000000160000000000016000000000001600000000000160000000000016000000000001700126000000000000805900000000000012894400000000000000009999123100000010000000000000BROIBRACNOR1112
012026030608OIBR4       010OI          PN      N1   R$  000000000013400000000001340000000000134000000000013400000000001340000000000129000000000013400004000000000000001700000000000000227800000000000000009999123100000010000000000000BROIBRACNPR8111
012026030608BOBR4       010BOMBRIL     PN           R$  000000000012100000000001210000000000121000000000012100000000001210000000000121000000000012400002000000000000000500000000000000060500000000000000009999123100000010000000000000BRBOBRACNPR3128
012026030608OSXB3       010OSX BRASIL  ON      NM   R$  000000000016800000000001680000000000168000000000016800000000001680000000000162000000000016800006000000000000005300000000000000890400000000000000009999123100000010000000000000BROSXBACNOR8109
012026030608AGXY3       010AGROGALAXY  ON      NM   R$  000000000022000000000002220000000000217000000000021800000000002170000000000217000000000022000103000000000000012000000000000002626900000000000000009999123100000010000000000000BRAGXYACNOR4104
012026030608AMBP3       010AMBIPAR     ON      NM   R$  000000000002300000000000240000000000022000000000002200000000000220000000000022000000000002300958000000000008473200000000000192810800000000000000009999123100000010000000000000BRAMBPACNOR6105
012026030608AMER3       010AMERICANAS  ON      NM   R$  000000000051000000000005190000000000495000000000050300000000004990000000000498000000000049902844000000000001692600000000000852175700000000000000009999123100000010000000000000BRAMERACNOR6103
012026030608CTAX3       010CONTAX      ON           R$  000000000008700000000000870000000000087000000000008700000000000870000000000082000000000008700001000000000000000100000000000000008700000000000000009999123100000010000000000000BRCTAXACNOR3119
012026030608JFEN3       010JOAO FORTES ON           R$  000000000008300000000000860000000000083000000000008300000000000830000000000083000000000008400038000000000000015100000000000001256600000000000000009999123100000010000000000000BRJFENACNOR0061
012026030608PMAM3       010PARANAPANEMAON      NM   R$  000000000005800000000000600000000000055000000000005600000000000550000000000055000000000005600612000000000002263900000000000128724100000000000000009999123100000010000000000000BRPMAMACNOR3046
012026030608HOOT4       010HOTEIS OTHONPN           R$  000000000071200000000007130000000000710000000000071100000000007100000000000689000000000071300003000000000000000300000000000000213500000000000000009999123100000010000000000000BRHOOTACNPR9015
012026030608RPMG3       010PET MANGUINHON           R$  000000000022900000000002290000000000229000000000022900000000002290000000000220000000000022800002000000000000000200000000000000045800000000000000009999123100000010000000000000BRRPMGACNOR9194
012026030608RSID3       010ROSSI RESID ON      NM   R$  000000000017900000000001790000000000179000000000017900000000001790000000000175000000000017900006000000000000000600000000000000107400000000000000009999123100000010000000000000BRRSIDACNOR8121
012026030610VGIA12      010FIAGRO VGIA DIR          R$  000000000001000000000000100000000000009000000000000900000000000090000000000009000000000001002474000000000000962249000000000009268321000000000000009999123100000010000000000000BRVGIAD04M12153
012026030610VIVR13      010VIVER       DIR     NM   R$  000000000000100000000000010000000000001000000000000100000000000010000000000000000000000000100125000000000000366500000000000000366500000000000000009999123100000010000000000000BRVIVRD03M15125
012026030610SNAG12      010FIAGRO SUNO DIR          R$  000000000001500000000000150000000000005000000000000800000000000090000000000009000000000001005749000000000002280718000000000018792477000000000000009999123100000010000000000000BRSNAGD04M10146
012026030610HYPE1       010HYPERA      DIR ORD NM   R$  000000000007200000000000990000000000045000000000006400000000000990000000000070000000000009901723000000000001094300000000000070269300000000000000009999123100000010000000000000BRHYPED02OR3149
012026030610BMEB9       010MERCANTIL   ON  REC N1   R$  000000000687500000000069200000000006875000000000689700000000069200000000006650000000000690000002000000000000000200000000000001379500000000000000009999123100000010000000000000BRBMEBR04OR7209
012026030610BMGB10      010BANCO BMG   PN  REC N1   R$  000000000048000000000004800000000000471000000000047500000000004720000000000472000000000047500032000000000000013800000000000006564000000000000000009999123100000010000000000000BRBMGBR03PR1117
012026030610ABCB10      010ABC BRASIL  PN  REC N2   R$  000000000264800000000026480000000002520000000000254700000000025710000000002530000000000264800021000000000000004300000000000010955200000000000000009999123100000010000000000000BRABCBR20PR9149
012026030610AZUL12      010AZUL        DIR     N2   R$  000000001100100000000115000000000010600000000001100000000000106000000000010600000000001089900025000000000108000000000000000001190798000000000000009999123110000000000000000000BRAZULD02M17101
012026030610AZUL14      010AZUL        DIR     N2   R$  000000000405000000000040990000000003500000000000380000000000039500000000003510000000000395000032000000000068000000000000000000258779000000000000009999123110000000000000000000BRAZULD03M16101
012026030610AZUL16      010AZUL        DIR     N2   R$  000000001115000000000119990000000010500000000001100000000000106020000000010500000000001178000019000000000024000000000000000000266124000000000000009999123110000000000000000000BRAZULD04M15101
012026030610PINE10      010PINE        PN  REC N2   R$  000000000114900000000011490000000001149000000000114900000000011490000000001050000000000000000001000000000000000100000000000000114900000000000000009999123100000010000000000000BRPINER10PR4160
012026030610PMAM1       010PARANAPANEMADIR ORD NM   R$  000000000000100000000000010000000000001000000000000100000000000010000000000000000000000000100120000000000000416500000000000000416500000000000000009999123100000010000000000000BRPMAMD10OR9045
012026030612WPLZ11      010FII W PLAZA CI  ER       R$  000000000513100000000051310000000004843000000000498500000000051000000000004845000000000519900015000000000000000338000000000001685197000000000000009999123100000010000000000000BRWPLZCTF004288
012026030612WTSP11      010FII WTC SP  CI           R$  000000000599900000000059990000000005999000000000599900000000059990000000005501000000000600000001000000000000000001000000000000005999000000000000009999123100000010000000000000BRWTSPCTF002184
012026030612RZAK11      010FII RIZA AKNCI           R$  000000000856100000000086900000000008550000000000859900000000086900000000008575000000000869002684000000000000018819000000000161841382000000000000009999123100000010000000000000BRRZAKCTF008164
012026030612RZAT11      010FII ARCTIUM CI           R$  000000000913700000000091980000000009104000000000916100000000091980000000009170000000000919800581000000000000006336000000000058047507000000000000009999123100000010000000000000BRRZATCTF009138
012026030612RZLC11      010FII RZLC    CI  ER       R$  000000010030100000001003010000000100301000000010030100000001003010000000000000000000000000000001000000000000000182000000000018254782000000000000009999123100000010000000000000BRRZLCCTF002118
012026030612RZTR11      010FII RIZA TX CI  ER       R$  000000000955000000000095970000000009517000000000955400000000095500000000009550000000000956905183000000000000032462000000000310172510000000000000009999123100000010000000000000BRRZTRCTF003169
012026030612RZZR11      010FII RZZR    CI           R$  000000001374800000000137480000000013507000000001359600000000136000000000013508000000001360000039000000000000000249000000000003385633000000000000009999123100000010000000000000BRRZZRCTF000118
012026030612XLPR11      010FII XLPR RI CI  ER       R$  000000000779100000000079500000000007780000000000786700000000079500000000007780000000000795000010000000000000000061000000000000479933000000000000009999123100000010000000000000BRXLPRCTF009103
012026030612XPCI11      010FII XP CRED CI  ER       R$  000000000838800000000086180000000008338000000000848500000000085000000000008499000000000850003581000000000000042135000000000357551742000000000000009999123100000010000000000000BRXPCICTF007178
012026030612XPCM11      010FII XP MACAECI           R$  000000000089600000000008970000000000845000000000085800000000008450000000000850000000000085400087000000000000001797000000000001542485000000000000009999123100000010000000000000BRXPCMCTF009230
012026030612XPIN11      010FII XP INDL CI           R$  000000000711100000000072000000000007111000000000715800000000071700000000007165000000000717001381000000000000015002000000000107389990000000000000009999123100000010000000000000BRXPINCTF004194
012026030612XPLG11      010FII XP LOG  CI  ER       R$  000000001022100000000103000000000010221000000001028500000000102780000000010278000000001028506828000000000000053448000000000549759933000000000000009999123100000010000000000000BRXPLGCTF002201
012026030612XPML11      010FII XP MALLSCI           R$  000000001105100000000110680000000011027000000001103900000000110390000000011035000000001103625714000000000000172528000000001904635227000000000000009999123100000010000000000000BRXPMLCTF000208
012026030612XPSF11      010FII XP SELECCI  ER       R$  000000000067900000000006840000000000677000000000068000000000006780000000000678000000000068100879000000000000042036000000000028590931000000000000009999123100000010000000000000BRXPSFCTF009177
012026030612SAPI11      010FII SAPI    CI  ER       R$  000000000093200000000009360000000000925000000000093100000000009310000000000931000000000093300718000000000000014019000000000013054631000000000000009999123100000010000000000000BRSAPICTF001131
012026030612VCJR11      010FII VECTIS  CI  ER       R$  000000000799100000000080580000000007928000000000796100000000079400000000007928000000000794005811000000000000034592000000000275399838000000000000009999123100000010000000000000BRVCJRCTF005176
012026030612VCRI11      010FII VINCI CRCI  ER       R$  000000000075500000000007590000000000747000000000075200000000007540000000000748000000000075400962000000000000013886000000000010444780000000000000009999123100000010000000000000BRVCRICTF007147
012026030612VCRR11      010FII VECT RENCI  ER       R$  000000000634000000000063410000000006283000000000630800000000063110000000006311000000000633000035000000000000005622000000000035466111000000000000009999123100000010000000000000BRVCRRCTF008157
012026030612VGHF11      010FII VALOR HECI  ER       R$  000000000070900000000007100000000000707000000000070800000000007090000000000708000000000070915232000000000000373158000000000264529110000000000000009999123100000010000000000000BRVGHFCTF005165
012026030612VGIP11      010FII VALORAIPCI           R$  000000000818300000000082100000000008083000000000813400000000082100000000008183000000000821006161000000000000027535000000000223993873000000000000009999123100000010000000000000BRVGIPCTF002176
012026030612VGIR11      010FII VALREIIICI           R$  000000000098200000000009830000000000979000000000098000000000009810000000000981000000000098227179000000000000619445000000000607673410000000000000009999123100000010000000000000BRVGIRCTF008198
012026030612VGRI11      010FII VGRI    CI  ER       R$  000000000082700000000008280000000000819000000000082300000000008210000000000821000000000082503223000000000000092812000000000076441853000000000000009999123100000010000000000000BRVGRICTF008125
012026030612VILG11      010FII VINCI LGCI  ER       R$  000000001016200000000102310000000010001000000001007500000000100330000000010033000000001006506592000000000000120194000000001210975603000000000000009999123100000010000000000000BRVILGCTF001192
012026030612VINO11      010FII VINCI OFCI  ER       R$  000000000055100000000005520000000000550000000000055100000000005500000000000550000000000055201348000000000000076761000000000042295471000000000000009999123100000010000000000000BRVINOCTF001178
012026030612VISC11      010FII VINCI SCCI  ER       R$  000000001116000000000112240000000011151000000001118700000000112030000000011203000000001120606923000000000000060604000000000677997650000000000000009999123100000010000000000000BRVISCCTF005207
012026030612VIUR11      010FII VINCI IUCI           R$  000000000058200000000005840000000000580000000000058200000000005830000000000582000000000058300718000000000000084236000000000049033798000000000000009999123100000010000000000000BRVIURCTF009157
012026030612SNCI11      010FII SUNO CRICI           R$  000000000908500000000090980000000009001000000000906100000000090340000000009001000000000903600383000000000000005207000000000047185233000000000000009999123100000010000000000000BRSNCICTF002156
012026030612SNEL11      010FII SUNO EL CI           R$  000000000085700000000008580000000000853000000000085500000000008540000000000854000000000085504944000000000000402959000000000344831511000000000000009999123100000010000000000000BRSNELCTF010131
012026030612SNFF11      010FII SUNOFOFICI           R$  000000000740000000000074000000000007272000000000731700000000073430000000007298000000000734300773000000000000009398000000000068766712000000000000009999123100000010000000000000BRSNFFCTF001159
012026030612SNME11      010FII SNME    CI           R$  000000000095800000000009630000000000955000000000095800000000009600000000000958000000000096000200000000000000005723000000000005487953000000000000009999123100000010000000000000BRSNMECTF000127
012026030612SPTW11      010FII SPTW PAXCI  ER       R$  000000000406100000000041410000000004061000000000412600000000041220000000004122000000000413000148000000000000000619000000000002554312000000000000009999123100000010000000000000BRSPTWCTF002256
012026030612BSLT11      010FII BSLT    CI           R$  000000000815500000000083940000000007903000000000807100000000080680000000008020000000000839500428000000000000002854000000000023037091000000000000009999123100000010000000000000BRBSLTCTF005100
012026030612BTCI11      010FII BTG CRI CI           R$  000000000093200000000009330000000000930000000000093100000000009330000000000932000000000093313710000000000000239865000000000223536651000000000000009999123100000010000000000000BRBTCICTF005140
012026030612BTHF11      010FII BTHF    CI           R$  000000000095500000000009640000000000954000000000096100000000009620000000000960000000000096214704000000000000403559000000000387901564000000000000009999123100000010000000000000BRBTHFCTF000116
012026030612BTHI11      010BTG HOTEL FICI  ER       R$  000000000438200000000044150000000004152000000000425400000000043600000000004209000000000436500056000000000000000764000000000003250509000000000000009999123100000010000000000000BRBTHICTF004130
012026030612BTLG11      010FII BTLG    CI           R$  000000001041800000000104480000000010400000000001042700000000104000000000010400000000001042921624000000000000108360000000001129928366000000000000009999123100000010000000000000BRBTLGCTF000185
012026030612SPXS11      010FII SPX SYN CI           R$  000000000087400000000008760000000000868000000000087200000000008690000000000870000000000087204145000000000000050376000000000043932077000000000000009999123100000010000000000000BRSPXSCTF002144
012026030612STYI11      010FII STYI    CI           R$  000000014300000000001500000000000140000000000014261600000001400000000000135000000000014785000007000000000000000017000000000002424480000000000000009999123100000010000000000000BRSTYICTF003100
012026030612BTYU11      010FII BTYU    CI           R$  000000000089000000000009140000000000876000000000088800000000009120000000000885000000000091200021000000000000000108000000000000096004000000000000009999123100000010000000000000BRBTYUCTF004122
012026030612PORD11      010FII POLO CRICI  ER       R$  000000000084000000000008450000000000834000000000084000000000008450000000000843000000000084501592000000000000132099000000000110980798000000000000009999123100000010000000000000BRPORDCTF005195
012026030612PQDP11      010FII D PEDRO CI  ER       R$  000000024010000000002444000000000225111000000023539100000002443990000000227002000000024439900136000000000000000245000000000057670981000000000000009999123100000010000000000000BRPQDPCTF004293
012026030612BCIA11      010FII BCIA    CI  ER       R$  000000000955500000000096000000000009459000000000951100000000095000000000009497000000000950000174000000000000002952000000000028079414000000000000009999123100000010000000000000BRBCIACTF005231
012026030612BCRI11      010FII BEES CRICI  ER       R$  000000000651700000000065250000000006480000000000651200000000064800000000006480000000000652301054000000000000007959000000000051831810000000000000009999123100000010000000000000BRBCRICTF009236
012026030612HBCR11      010FII HBC REN CI           R$  000000001351400000000135140000000013510000000001351000000000135140000000009834000000001351000003000000000000000013000000000000175642000000000000009999123100000010000000000000BRHBCRCTF001162
012026030612HCHG11      010FII HECT CRICI           R$  000000000802500000000080250000000008025000000000802500000000080250000000008025000000000830000003000000000000000012000000000000096300000000000000009999123100000010000000000000BRHCHGCTF001156
012026030612HCRI11      010FII CRIANCA CI           R$  000000002893500000000295980000000028611000000002904700000000291900000000029000000000002919000022000000000000000081000000000002352874000000000000009999123100000010000000000000BRHCRICTF006349
012026030612HCTR11      010FII HECTARE CI           R$  000000000217500000000021880000000002121000000000216500000000021510000000002150000000000215902360000000000000069391000000000150245009000000000000009999123100000010000000000000BRHCTRCTF003189
012026030612HDEL11      010FII HEDGE DVCI           R$  000000001000500000000100050000000010005000000001000500000000100050000000000000000000001000500001000000000000000008000000000000080040000000000000009999123100000010000000000000BRHDELCTF006107
